{
  "contractName": "PixelsToken",
  "abi": [
    {
      "inputs": [],
      "stateMutability": "nonpayable",
      "type": "constructor"
    },
    {
      "anonymous": false,
      "inputs": [
        {
          "indexed": true,
          "internalType": "address",
          "name": "owner",
          "type": "address"
        },
        {
          "indexed": true,
          "internalType": "address",
          "name": "approved",
          "type": "address"
        },
        {
          "indexed": true,
          "internalType": "uint256",
          "name": "tokenId",
          "type": "uint256"
        }
      ],
      "name": "Approval",
      "type": "event"
    },
    {
      "anonymous": false,
      "inputs": [
        {
          "indexed": true,
          "internalType": "address",
          "name": "owner",
          "type": "address"
        },
        {
          "indexed": true,
          "internalType": "address",
          "name": "operator",
          "type": "address"
        },
        {
          "indexed": false,
          "internalType": "bool",
          "name": "approved",
          "type": "bool"
        }
      ],
      "name": "ApprovalForAll",
      "type": "event"
    },
    {
      "anonymous": false,
      "inputs": [
        {
          "indexed": true,
          "internalType": "address",
          "name": "from",
          "type": "address"
        },
        {
          "indexed": true,
          "internalType": "address",
          "name": "to",
          "type": "address"
        },
        {
          "indexed": true,
          "internalType": "uint256",
          "name": "tokenId",
          "type": "uint256"
        }
      ],
      "name": "Transfer",
      "type": "event"
    },
    {
      "inputs": [
        {
          "internalType": "address",
          "name": "to",
          "type": "address"
        },
        {
          "internalType": "uint256",
          "name": "tokenId",
          "type": "uint256"
        }
      ],
      "name": "approve",
      "outputs": [],
      "stateMutability": "nonpayable",
      "type": "function"
    },
    {
      "inputs": [
        {
          "internalType": "address",
          "name": "owner",
          "type": "address"
        }
      ],
      "name": "balanceOf",
      "outputs": [
        {
          "internalType": "uint256",
          "name": "",
          "type": "uint256"
        }
      ],
      "stateMutability": "view",
      "type": "function"
    },
    {
      "inputs": [],
      "name": "baseURI",
      "outputs": [
        {
          "internalType": "string",
          "name": "",
          "type": "string"
        }
      ],
      "stateMutability": "view",
      "type": "function"
    },
    {
      "inputs": [
        {
          "internalType": "uint256",
          "name": "tokenId",
          "type": "uint256"
        }
      ],
      "name": "getApproved",
      "outputs": [
        {
          "internalType": "address",
          "name": "",
          "type": "address"
        }
      ],
      "stateMutability": "view",
      "type": "function"
    },
    {
      "inputs": [
        {
          "internalType": "address",
          "name": "owner",
          "type": "address"
        },
        {
          "internalType": "address",
          "name": "operator",
          "type": "address"
        }
      ],
      "name": "isApprovedForAll",
      "outputs": [
        {
          "internalType": "bool",
          "name": "",
          "type": "bool"
        }
      ],
      "stateMutability": "view",
      "type": "function"
    },
    {
      "inputs": [],
      "name": "name",
      "outputs": [
        {
          "internalType": "string",
          "name": "",
          "type": "string"
        }
      ],
      "stateMutability": "view",
      "type": "function"
    },
    {
      "inputs": [
        {
          "internalType": "uint256",
          "name": "tokenId",
          "type": "uint256"
        }
      ],
      "name": "ownerOf",
      "outputs": [
        {
          "internalType": "address",
          "name": "",
          "type": "address"
        }
      ],
      "stateMutability": "view",
      "type": "function"
    },
    {
      "inputs": [
        {
          "internalType": "address",
          "name": "from",
          "type": "address"
        },
        {
          "internalType": "address",
          "name": "to",
          "type": "address"
        },
        {
          "internalType": "uint256",
          "name": "tokenId",
          "type": "uint256"
        }
      ],
      "name": "safeTransferFrom",
      "outputs": [],
      "stateMutability": "nonpayable",
      "type": "function"
    },
    {
      "inputs": [
        {
          "internalType": "address",
          "name": "from",
          "type": "address"
        },
        {
          "internalType": "address",
          "name": "to",
          "type": "address"
        },
        {
          "internalType": "uint256",
          "name": "tokenId",
          "type": "uint256"
        },
        {
          "internalType": "bytes",
          "name": "_data",
          "type": "bytes"
        }
      ],
      "name": "safeTransferFrom",
      "outputs": [],
      "stateMutability": "nonpayable",
      "type": "function"
    },
    {
      "inputs": [
        {
          "internalType": "address",
          "name": "operator",
          "type": "address"
        },
        {
          "internalType": "bool",
          "name": "approved",
          "type": "bool"
        }
      ],
      "name": "setApprovalForAll",
      "outputs": [],
      "stateMutability": "nonpayable",
      "type": "function"
    },
    {
      "inputs": [
        {
          "internalType": "bytes4",
          "name": "interfaceId",
          "type": "bytes4"
        }
      ],
      "name": "supportsInterface",
      "outputs": [
        {
          "internalType": "bool",
          "name": "",
          "type": "bool"
        }
      ],
      "stateMutability": "view",
      "type": "function"
    },
    {
      "inputs": [],
      "name": "symbol",
      "outputs": [
        {
          "internalType": "string",
          "name": "",
          "type": "string"
        }
      ],
      "stateMutability": "view",
      "type": "function"
    },
    {
      "inputs": [
        {
          "internalType": "uint256",
          "name": "index",
          "type": "uint256"
        }
      ],
      "name": "tokenByIndex",
      "outputs": [
        {
          "internalType": "uint256",
          "name": "",
          "type": "uint256"
        }
      ],
      "stateMutability": "view",
      "type": "function"
    },
    {
      "inputs": [
        {
          "internalType": "address",
          "name": "owner",
          "type": "address"
        },
        {
          "internalType": "uint256",
          "name": "index",
          "type": "uint256"
        }
      ],
      "name": "tokenOfOwnerByIndex",
      "outputs": [
        {
          "internalType": "uint256",
          "name": "",
          "type": "uint256"
        }
      ],
      "stateMutability": "view",
      "type": "function"
    },
    {
      "inputs": [
        {
          "internalType": "uint256",
          "name": "tokenId",
          "type": "uint256"
        }
      ],
      "name": "tokenURI",
      "outputs": [
        {
          "internalType": "string",
          "name": "",
          "type": "string"
        }
      ],
      "stateMutability": "view",
      "type": "function"
    },
    {
      "inputs": [],
      "name": "totalSupply",
      "outputs": [
        {
          "internalType": "uint256",
          "name": "",
          "type": "uint256"
        }
      ],
      "stateMutability": "view",
      "type": "function"
    },
    {
      "inputs": [
        {
          "internalType": "address",
          "name": "from",
          "type": "address"
        },
        {
          "internalType": "address",
          "name": "to",
          "type": "address"
        },
        {
          "internalType": "uint256",
          "name": "tokenId",
          "type": "uint256"
        }
      ],
      "name": "transferFrom",
      "outputs": [],
      "stateMutability": "nonpayable",
      "type": "function"
    },
    {
      "inputs": [
        {
          "internalType": "uint256",
          "name": "tokenId",
          "type": "uint256"
        }
      ],
      "name": "getPixels",
      "outputs": [
        {
          "internalType": "bytes3[64]",
          "name": "",
          "type": "bytes3[64]"
        }
      ],
      "stateMutability": "view",
      "type": "function"
    },
    {
      "inputs": [
        {
          "internalType": "bytes3[64]",
          "name": "pixels",
          "type": "bytes3[64]"
        }
      ],
      "name": "mintPixels",
      "outputs": [
        {
          "internalType": "uint256",
          "name": "",
          "type": "uint256"
        }
      ],
      "stateMutability": "nonpayable",
      "type": "function"
    }
  ],
  "bytecode": "0x60806040523480156200001157600080fd5b506040518060400160405280600b81526020017f506978656c73546f6b656e0000000000000000000000000000000000000000008152506040518060400160405280600481526020017f50584c5300000000000000000000000000000000000000000000000000000000815250620000966301ffc9a760e01b6200011860201b60201c565b8160069080519060200190620000ae92919062000221565b508060079080519060200190620000c792919062000221565b50620000e06380ac58cd60e01b6200011860201b60201c565b620000f8635b5e139f60e01b6200011860201b60201c565b6200011063780e9d6360e01b6200011860201b60201c565b5050620002d0565b63ffffffff60e01b817bffffffffffffffffffffffffffffffffffffffffffffffffffffffff19161415620001b5576040517f08c379a000000000000000000000000000000000000000000000000000000000815260040180806020018281038252601c8152602001807f4552433136353a20696e76616c696420696e746572666163652069640000000081525060200191505060405180910390fd5b6001600080837bffffffffffffffffffffffffffffffffffffffffffffffffffffffff19167bffffffffffffffffffffffffffffffffffffffffffffffffffffffff1916815260200190815260200160002060006101000a81548160ff02191690831515021790555050565b828054600181600116156101000203166002900490600052602060002090601f016020900481019282601f106200026457805160ff191683800117855562000295565b8280016001018555821562000295579182015b828111156200029457825182559160200191906001019062000277565b5b509050620002a49190620002a8565b5090565b620002cd91905b80821115620002c9576000816000905550600101620002af565b5090565b90565b612c4080620002e06000396000f3fe608060405234801561001057600080fd5b50600436106101215760003560e01c8063613369e4116100ad578063a22cb46511610071578063a22cb465146106af578063b88d4fde146106ff578063c87b56dd14610804578063e985e9c5146108ab578063feb923e11461092757610121565b8063613369e4146104685780636352211e146104e35780636c0360eb1461055157806370a08231146105d457806395d89b411461062c57610121565b806318160ddd116100f457806318160ddd146102ca57806323b872dd146102e85780632f745c591461035657806342842e0e146103b85780634f6ccce71461042657610121565b806301ffc9a71461012657806306fdde031461018b578063081812fc1461020e578063095ea7b31461027c575b600080fd5b6101716004803603602081101561013c57600080fd5b8101908080357bffffffffffffffffffffffffffffffffffffffffffffffffffffffff19169060200190929190505050610991565b604051808215151515815260200191505060405180910390f35b6101936109f8565b6040518080602001828103825283818151815260200191508051906020019080838360005b838110156101d35780820151818401526020810190506101b8565b50505050905090810190601f1680156102005780820380516001836020036101000a031916815260200191505b509250505060405180910390f35b61023a6004803603602081101561022457600080fd5b8101908080359060200190929190505050610a9a565b604051808273ffffffffffffffffffffffffffffffffffffffff1673ffffffffffffffffffffffffffffffffffffffff16815260200191505060405180910390f35b6102c86004803603604081101561029257600080fd5b81019080803573ffffffffffffffffffffffffffffffffffffffff16906020019092919080359060200190929190505050610b35565b005b6102d2610c79565b6040518082815260200191505060405180910390f35b610354600480360360608110156102fe57600080fd5b81019080803573ffffffffffffffffffffffffffffffffffffffff169060200190929190803573ffffffffffffffffffffffffffffffffffffffff16906020019092919080359060200190929190505050610c8a565b005b6103a26004803603604081101561036c57600080fd5b81019080803573ffffffffffffffffffffffffffffffffffffffff16906020019092919080359060200190929190505050610d00565b6040518082815260200191505060405180910390f35b610424600480360360608110156103ce57600080fd5b81019080803573ffffffffffffffffffffffffffffffffffffffff169060200190929190803573ffffffffffffffffffffffffffffffffffffffff16906020019092919080359060200190929190505050610d5b565b005b6104526004803603602081101561043c57600080fd5b8101908080359060200190929190505050610d7b565b6040518082815260200191505060405180910390f35b6104cd600480360361080081101561047f57600080fd5b810190808061080001906040806020026040519081016040528092919082604060200280828437600081840152601f19601f8201169050808301925050505050509192919290505050610d9e565b6040518082815260200191505060405180910390f35b61050f600480360360208110156104f957600080fd5b8101908080359060200190929190505050610e05565b604051808273ffffffffffffffffffffffffffffffffffffffff1673ffffffffffffffffffffffffffffffffffffffff16815260200191505060405180910390f35b610559610e3c565b6040518080602001828103825283818151815260200191508051906020019080838360005b8381101561059957808201518184015260208101905061057e565b50505050905090810190601f1680156105c65780820380516001836020036101000a031916815260200191505b509250505060405180910390f35b610616600480360360208110156105ea57600080fd5b81019080803573ffffffffffffffffffffffffffffffffffffffff169060200190929190505050610ede565b6040518082815260200191505060405180910390f35b610634610fb3565b6040518080602001828103825283818151815260200191508051906020019080838360005b83811015610674578082015181840152602081019050610659565b50505050905090810190601f1680156106a15780820380516001836020036101000a031916815260200191505b509250505060405180910390f35b6106fd600480360360408110156106c557600080fd5b81019080803573ffffffffffffffffffffffffffffffffffffffff169060200190929190803515159060200190929190505050611055565b005b6108026004803603608081101561071557600080fd5b81019080803573ffffffffffffffffffffffffffffffffffffffff169060200190929190803573ffffffffffffffffffffffffffffffffffffffff169060200190929190803590602001909291908035906020019064010000000081111561077c57600080fd5b82018360208201111561078e57600080fd5b803590602001918460018302840111640100000000831117156107b057600080fd5b91908080601f016020809104026020016040519081016040528093929190818152602001838380828437600081840152601f19601f82011690508083019250505050505050919291929050505061120d565b005b6108306004803603602081101561081a57600080fd5b8101908080359060200190929190505050611285565b6040518080602001828103825283818151815260200191508051906020019080838360005b83811015610870578082015181840152602081019050610855565b50505050905090810190601f16801561089d5780820380516001836020036101000a031916815260200191505b509250505060405180910390f35b61090d600480360360408110156108c157600080fd5b81019080803573ffffffffffffffffffffffffffffffffffffffff169060200190929190803573ffffffffffffffffffffffffffffffffffffffff16906020019092919050505061156e565b604051808215151515815260200191505060405180910390f35b6109536004803603602081101561093d57600080fd5b8101908080359060200190929190505050611602565b6040518082604060200280838360005b8381101561097e578082015181840152602081019050610963565b5050505090500191505060405180910390f35b6000806000837bffffffffffffffffffffffffffffffffffffffffffffffffffffffff19167bffffffffffffffffffffffffffffffffffffffffffffffffffffffff1916815260200190815260200160002060009054906101000a900460ff169050919050565b606060068054600181600116156101000203166002900480601f016020809104026020016040519081016040528092919081815260200182805460018160011615610100020316600290048015610a905780601f10610a6557610100808354040283529160200191610a90565b820191906000526020600020905b815481529060010190602001808311610a7357829003601f168201915b5050505050905090565b6000610aa5826116ab565b610afa576040517f08c379a000000000000000000000000000000000000000000000000000000000815260040180806020018281038252602c815260200180612b35602c913960400191505060405180910390fd5b6004600083815260200190815260200160002060009054906101000a900473ffffffffffffffffffffffffffffffffffffffff169050919050565b6000610b4082610e05565b90508073ffffffffffffffffffffffffffffffffffffffff168373ffffffffffffffffffffffffffffffffffffffff161415610bc7576040517f08c379a0000000000000000000000000000000000000000000000000000000008152600401808060200182810382526021815260200180612bb96021913960400191505060405180910390fd5b8073ffffffffffffffffffffffffffffffffffffffff16610be66116c8565b73ffffffffffffffffffffffffffffffffffffffff161480610c155750610c1481610c0f6116c8565b61156e565b5b610c6a576040517f08c379a0000000000000000000000000000000000000000000000000000000008152600401808060200182810382526038815260200180612a886038913960400191505060405180910390fd5b610c7483836116d0565b505050565b6000610c856002611789565b905090565b610c9b610c956116c8565b8261179e565b610cf0576040517f08c379a0000000000000000000000000000000000000000000000000000000008152600401808060200182810382526031815260200180612bda6031913960400191505060405180910390fd5b610cfb838383611892565b505050565b6000610d5382600160008673ffffffffffffffffffffffffffffffffffffffff1673ffffffffffffffffffffffffffffffffffffffff168152602001908152602001600020611ad590919063ffffffff16565b905092915050565b610d768383836040518060200160405280600081525061120d565b505050565b600080610d92836002611aef90919063ffffffff16565b50905080915050919050565b600080610dab600a611b1e565b9050600b839080600181540180825580915050600190039060005260206000209060070201600090919091909150906040610de79291906128f0565b50610df23382611b2c565b610dfc600a611d20565b80915050919050565b6000610e3582604051806060016040528060298152602001612aea602991396002611d369092919063ffffffff16565b9050919050565b606060098054600181600116156101000203166002900480601f016020809104026020016040519081016040528092919081815260200182805460018160011615610100020316600290048015610ed45780601f10610ea957610100808354040283529160200191610ed4565b820191906000526020600020905b815481529060010190602001808311610eb757829003601f168201915b5050505050905090565b60008073ffffffffffffffffffffffffffffffffffffffff168273ffffffffffffffffffffffffffffffffffffffff161415610f65576040517f08c379a000000000000000000000000000000000000000000000000000000000815260040180806020018281038252602a815260200180612ac0602a913960400191505060405180910390fd5b610fac600160008473ffffffffffffffffffffffffffffffffffffffff1673ffffffffffffffffffffffffffffffffffffffff168152602001908152602001600020611d55565b9050919050565b606060078054600181600116156101000203166002900480601f01602080910402602001604051908101604052809291908181526020018280546001816001161561010002031660029004801561104b5780601f106110205761010080835404028352916020019161104b565b820191906000526020600020905b81548152906001019060200180831161102e57829003601f168201915b5050505050905090565b61105d6116c8565b73ffffffffffffffffffffffffffffffffffffffff168273ffffffffffffffffffffffffffffffffffffffff1614156110fe576040517f08c379a00000000000000000000000000000000000000000000000000000000081526004018080602001828103825260198152602001807f4552433732313a20617070726f766520746f2063616c6c65720000000000000081525060200191505060405180910390fd5b806005600061110b6116c8565b73ffffffffffffffffffffffffffffffffffffffff1673ffffffffffffffffffffffffffffffffffffffff16815260200190815260200160002060008473ffffffffffffffffffffffffffffffffffffffff1673ffffffffffffffffffffffffffffffffffffffff16815260200190815260200160002060006101000a81548160ff0219169083151502179055508173ffffffffffffffffffffffffffffffffffffffff166111b86116c8565b73ffffffffffffffffffffffffffffffffffffffff167f17307eab39ab6107e8899845ad3d59bd9653f200f220920489ca2b5937696c3183604051808215151515815260200191505060405180910390a35050565b61121e6112186116c8565b8361179e565b611273576040517f08c379a0000000000000000000000000000000000000000000000000000000008152600401808060200182810382526031815260200180612bda6031913960400191505060405180910390fd5b61127f84848484611d6a565b50505050565b6060611290826116ab565b6112e5576040517f08c379a000000000000000000000000000000000000000000000000000000000815260040180806020018281038252602f815260200180612b8a602f913960400191505060405180910390fd5b6060600860008481526020019081526020016000208054600181600116156101000203166002900480601f01602080910402602001604051908101604052809291908181526020018280546001816001161561010002031660029004801561138e5780601f106113635761010080835404028352916020019161138e565b820191906000526020600020905b81548152906001019060200180831161137157829003601f168201915b505050505090506000600980546001816001161561010002031660029004905014156113bd5780915050611569565b6000815111156114965760098160405160200180838054600181600116156101000203166002900480156114285780601f10611406576101008083540402835291820191611428565b820191906000526020600020905b815481529060010190602001808311611414575b505082805190602001908083835b602083106114595780518252602082019150602081019050602083039250611436565b6001836020036101000a03801982511681845116808217855250505050505090500192505050604051602081830303815290604052915050611569565b60096114a184611ddc565b60405160200180838054600181600116156101000203166002900480156114ff5780601f106114dd5761010080835404028352918201916114ff565b820191906000526020600020905b8154815290600101906020018083116114eb575b505082805190602001908083835b60208310611530578051825260208201915060208101905060208303925061150d565b6001836020036101000a038019825116818451168082178552505050505050905001925050506040516020818303038152906040529150505b919050565b6000600560008473ffffffffffffffffffffffffffffffffffffffff1673ffffffffffffffffffffffffffffffffffffffff16815260200190815260200160002060008373ffffffffffffffffffffffffffffffffffffffff1673ffffffffffffffffffffffffffffffffffffffff16815260200190815260200160002060009054906101000a900460ff16905092915050565b61160a61298e565b600b828154811061161757fe5b906000526020600020906007020160408060200260405190810160405280929190826040801561169f576020028201916000905b82829054906101000a900460e81b7cffffffffffffffffffffffffffffffffffffffffffffffffffffffffff19168152602001906003019060208260020104928301926001038202915080841161164b5790505b50505050509050919050565b60006116c1826002611f0c90919063ffffffff16565b9050919050565b600033905090565b816004600083815260200190815260200160002060006101000a81548173ffffffffffffffffffffffffffffffffffffffff021916908373ffffffffffffffffffffffffffffffffffffffff160217905550808273ffffffffffffffffffffffffffffffffffffffff1661174383610e05565b73ffffffffffffffffffffffffffffffffffffffff167f8c5be1e5ebec7d5bd14f71427d1e84f3dd0314c0f7b2291e5b200ac8c7c3b92560405160405180910390a45050565b600061179782600001611f26565b9050919050565b60006117a9826116ab565b6117fe576040517f08c379a000000000000000000000000000000000000000000000000000000000815260040180806020018281038252602c815260200180612a5c602c913960400191505060405180910390fd5b600061180983610e05565b90508073ffffffffffffffffffffffffffffffffffffffff168473ffffffffffffffffffffffffffffffffffffffff16148061187857508373ffffffffffffffffffffffffffffffffffffffff1661186084610a9a565b73ffffffffffffffffffffffffffffffffffffffff16145b806118895750611888818561156e565b5b91505092915050565b8273ffffffffffffffffffffffffffffffffffffffff166118b282610e05565b73ffffffffffffffffffffffffffffffffffffffff161461191e576040517f08c379a0000000000000000000000000000000000000000000000000000000008152600401808060200182810382526029815260200180612b616029913960400191505060405180910390fd5b600073ffffffffffffffffffffffffffffffffffffffff168273ffffffffffffffffffffffffffffffffffffffff1614156119a4576040517f08c379a0000000000000000000000000000000000000000000000000000000008152600401808060200182810382526024815260200180612a386024913960400191505060405180910390fd5b6119af838383611f37565b6119ba6000826116d0565b611a0b81600160008673ffffffffffffffffffffffffffffffffffffffff1673ffffffffffffffffffffffffffffffffffffffff168152602001908152602001600020611f3c90919063ffffffff16565b50611a5d81600160008573ffffffffffffffffffffffffffffffffffffffff1673ffffffffffffffffffffffffffffffffffffffff168152602001908152602001600020611f5690919063ffffffff16565b50611a7481836002611f709092919063ffffffff16565b50808273ffffffffffffffffffffffffffffffffffffffff168473ffffffffffffffffffffffffffffffffffffffff167fddf252ad1be2c89b69c2b068fc378daa952ba7f163c4a11628f55a4df523b3ef60405160405180910390a4505050565b6000611ae48360000183611fa5565b60001c905092915050565b600080600080611b028660000186612028565b915091508160001c8160001c8090509350935050509250929050565b600081600001549050919050565b600073ffffffffffffffffffffffffffffffffffffffff168273ffffffffffffffffffffffffffffffffffffffff161415611bcf576040517f08c379a00000000000000000000000000000000000000000000000000000000081526004018080602001828103825260208152602001807f4552433732313a206d696e7420746f20746865207a65726f206164647265737381525060200191505060405180910390fd5b611bd8816116ab565b15611c4b576040517f08c379a000000000000000000000000000000000000000000000000000000000815260040180806020018281038252601c8152602001807f4552433732313a20746f6b656e20616c7265616479206d696e7465640000000081525060200191505060405180910390fd5b611c5760008383611f37565b611ca881600160008573ffffffffffffffffffffffffffffffffffffffff1673ffffffffffffffffffffffffffffffffffffffff168152602001908152602001600020611f5690919063ffffffff16565b50611cbf81836002611f709092919063ffffffff16565b50808273ffffffffffffffffffffffffffffffffffffffff16600073ffffffffffffffffffffffffffffffffffffffff167fddf252ad1be2c89b69c2b068fc378daa952ba7f163c4a11628f55a4df523b3ef60405160405180910390a45050565b6001816000016000828254019250508190555050565b6000611d49846000018460001b846120c1565b60001c90509392505050565b6000611d63826000016121b7565b9050919050565b611d75848484611892565b611d81848484846121c8565b611dd6576040517f08c379a0000000000000000000000000000000000000000000000000000000008152600401808060200182810382526032815260200180612a066032913960400191505060405180910390fd5b50505050565b60606000821415611e24576040518060400160405280600181526020017f30000000000000000000000000000000000000000000000000000000000000008152509050611f07565b600082905060005b60008214611e4e578080600101915050600a8281611e4657fe5b049150611e2c565b6060816040519080825280601f01601f191660200182016040528015611e835781602001600182028038833980820191505090505b50905060006001830390508593505b60008414611eff57600a8481611ea457fe5b0660300160f81b82828060019003935081518110611ebe57fe5b60200101907effffffffffffffffffffffffffffffffffffffffffffffffffffffffffffff1916908160001a905350600a8481611ef757fe5b049350611e92565b819450505050505b919050565b6000611f1e836000018360001b61240d565b905092915050565b600081600001805490509050919050565b505050565b6000611f4e836000018360001b612430565b905092915050565b6000611f68836000018360001b612518565b905092915050565b6000611f9c846000018460001b8473ffffffffffffffffffffffffffffffffffffffff1660001b612588565b90509392505050565b600081836000018054905011612006576040517f08c379a00000000000000000000000000000000000000000000000000000000081526004018080602001828103825260228152602001806129e46022913960400191505060405180910390fd5b82600001828154811061201557fe5b9060005260206000200154905092915050565b6000808284600001805490501161208a576040517f08c379a0000000000000000000000000000000000000000000000000000000008152600401808060200182810382526022815260200180612b136022913960400191505060405180910390fd5b600084600001848154811061209b57fe5b906000526020600020906002020190508060000154816001015492509250509250929050565b60008084600101600085815260200190815260200160002054905060008114158390612188576040517f08c379a00000000000000000000000000000000000000000000000000000000081526004018080602001828103825283818151815260200191508051906020019080838360005b8381101561214d578082015181840152602081019050612132565b50505050905090810190601f16801561217a5780820380516001836020036101000a031916815260200191505b509250505060405180910390fd5b5084600001600182038154811061219b57fe5b9060005260206000209060020201600101549150509392505050565b600081600001805490509050919050565b60006121e98473ffffffffffffffffffffffffffffffffffffffff16612664565b6121f65760019050612405565b606061238c63150b7a0260e01b61220b6116c8565b888787604051602401808573ffffffffffffffffffffffffffffffffffffffff1673ffffffffffffffffffffffffffffffffffffffff1681526020018473ffffffffffffffffffffffffffffffffffffffff1673ffffffffffffffffffffffffffffffffffffffff16815260200183815260200180602001828103825283818151815260200191508051906020019080838360005b838110156122bb5780820151818401526020810190506122a0565b50505050905090810190601f1680156122e85780820380516001836020036101000a031916815260200191505b5095505050505050604051602081830303815290604052907bffffffffffffffffffffffffffffffffffffffffffffffffffffffff19166020820180517bffffffffffffffffffffffffffffffffffffffffffffffffffffffff8381831617835250505050604051806060016040528060328152602001612a06603291398773ffffffffffffffffffffffffffffffffffffffff166126af9092919063ffffffff16565b905060008180602001905160208110156123a557600080fd5b8101908080519060200190929190505050905063150b7a0260e01b7bffffffffffffffffffffffffffffffffffffffffffffffffffffffff1916817bffffffffffffffffffffffffffffffffffffffffffffffffffffffff191614925050505b949350505050565b600080836001016000848152602001908152602001600020541415905092915050565b6000808360010160008481526020019081526020016000205490506000811461250c576000600182039050600060018660000180549050039050600086600001828154811061247b57fe5b906000526020600020015490508087600001848154811061249857fe5b90600052602060002001819055506001830187600101600083815260200190815260200160002081905550866000018054806124d057fe5b60019003818190600052602060002001600090559055866001016000878152602001908152602001600020600090556001945050505050612512565b60009150505b92915050565b600061252483836126c7565b61257d578260000182908060018154018082558091505060019003906000526020600020016000909190919091505582600001805490508360010160008481526020019081526020016000208190555060019050612582565b600090505b92915050565b600080846001016000858152602001908152602001600020549050600081141561262f5784600001604051806040016040528086815260200185815250908060018154018082558091505060019003906000526020600020906002020160009091909190915060008201518160000155602082015181600101555050846000018054905085600101600086815260200190815260200160002081905550600191505061265d565b8285600001600183038154811061264257fe5b90600052602060002090600202016001018190555060009150505b9392505050565b60008060007fc5d2460186f7233c927e7db2dcc703c0e500b653ca82273b7bfad8045d85a47060001b9050833f91508082141580156126a657506000801b8214155b92505050919050565b60606126be84846000856126ea565b90509392505050565b600080836001016000848152602001908152602001600020541415905092915050565b60606126f585612664565b612767576040517f08c379a000000000000000000000000000000000000000000000000000000000815260040180806020018281038252601d8152602001807f416464726573733a2063616c6c20746f206e6f6e2d636f6e747261637400000081525060200191505060405180910390fd5b600060608673ffffffffffffffffffffffffffffffffffffffff1685876040518082805190602001908083835b602083106127b75780518252602082019150602081019050602083039250612794565b6001836020036101000a03801982511681845116808217855250505050505090500191505060006040518083038185875af1925050503d8060008114612819576040519150601f19603f3d011682016040523d82523d6000602084013e61281e565b606091505b509150915081156128335780925050506128e8565b6000815111156128465780518082602001fd5b836040517f08c379a00000000000000000000000000000000000000000000000000000000081526004018080602001828103825283818151815260200191508051906020019080838360005b838110156128ad578082015181840152602081019050612892565b50505050905090810190601f1680156128da5780820380516001836020036101000a031916815260200191505b509250505060405180910390fd5b949350505050565b826040600901600a9004810192821561297d5791602002820160005b8382111561294c57835183826101000a81548162ffffff021916908360e81c0217905550926020019260030160208160020104928301926001030261290c565b801561297b5782816101000a81549062ffffff021916905560030160208160020104928301926001030261294c565b505b50905061298a91906129b1565b5090565b604051806108000160405280604090602082028038833980820191505090505090565b6129e091905b808211156129dc57600081816101000a81549062ffffff0219169055506001016129b7565b5090565b9056fe456e756d657261626c655365743a20696e646578206f7574206f6620626f756e64734552433732313a207472616e7366657220746f206e6f6e20455243373231526563656976657220696d706c656d656e7465724552433732313a207472616e7366657220746f20746865207a65726f20616464726573734552433732313a206f70657261746f7220717565727920666f72206e6f6e6578697374656e7420746f6b656e4552433732313a20617070726f76652063616c6c6572206973206e6f74206f776e6572206e6f7220617070726f76656420666f7220616c6c4552433732313a2062616c616e636520717565727920666f7220746865207a65726f20616464726573734552433732313a206f776e657220717565727920666f72206e6f6e6578697374656e7420746f6b656e456e756d657261626c654d61703a20696e646578206f7574206f6620626f756e64734552433732313a20617070726f76656420717565727920666f72206e6f6e6578697374656e7420746f6b656e4552433732313a207472616e73666572206f6620746f6b656e2074686174206973206e6f74206f776e4552433732314d657461646174613a2055524920717565727920666f72206e6f6e6578697374656e7420746f6b656e4552433732313a20617070726f76616c20746f2063757272656e74206f776e65724552433732313a207472616e736665722063616c6c6572206973206e6f74206f776e6572206e6f7220617070726f766564a2646970667358221220ea5a2767470e9fc7a9a8aa5c1a609c93c3712aee215eaa53b4912f795de427a064736f6c63430006020033",
  "source": "// SPDX-License-Identifier: MIT\npragma solidity ^0.6.2;\n\nimport '@openzeppelin/contracts/token/ERC721/ERC721.sol';\nimport '@openzeppelin/contracts/utils/Counters.sol';\n\n// NFT Pixels token\n// Stores rgb pixels\n\ncontract PixelsToken is ERC721 {\n  using Counters for Counters.Counter;\n  Counters.Counter private _tokenIds;\n\n  uint constant size = 8*8;\n  bytes3[size][] private _store;\n\n  constructor() public ERC721(\"PixelsToken\", \"PXLS\") {\n\n  }\n\n  // Returns the pixels of a token\n  function getPixels(uint256 tokenId)\n    public\n    view\n    returns(bytes3[size] memory)\n  {\n    return _store[tokenId];\n  }\n\n  // Create a new token\n  function mintPixels(bytes3[size] memory pixels)\n    public\n    returns (uint256)\n  {\n    uint256 tokenId = _tokenIds.current();\n    _store.push(pixels);\n    _mint(msg.sender, tokenId);\n    _tokenIds.increment();\n    return tokenId;\n  }\n}\n",
  "sourcePath": "D:/Code/nft-pixels/contracts/PixelsToken.sol",
  "compiler": {
    "name": "solc",
    "version": "0.6.2+commit.bacdbe57.Emscripten.clang"
  },
  "schemaVersion": "3.2.3",
  "updatedAt": "2020-07-26T03:58:52.934Z",
  "devdoc": {
    "methods": {
      "approve(address,uint256)": {
        "details": "See {IERC721-approve}."
      },
      "balanceOf(address)": {
        "details": "See {IERC721-balanceOf}."
      },
      "baseURI()": {
        "details": "Returns the base URI set via {_setBaseURI}. This will be automatically added as a prefix in {tokenURI} to each token's URI, or to the token ID if no specific URI is set for that token ID."
      },
      "getApproved(uint256)": {
        "details": "See {IERC721-getApproved}."
      },
      "isApprovedForAll(address,address)": {
        "details": "See {IERC721-isApprovedForAll}."
      },
      "name()": {
        "details": "See {IERC721Metadata-name}."
      },
      "ownerOf(uint256)": {
        "details": "See {IERC721-ownerOf}."
      },
      "safeTransferFrom(address,address,uint256)": {
        "details": "See {IERC721-safeTransferFrom}."
      },
      "safeTransferFrom(address,address,uint256,bytes)": {
        "details": "See {IERC721-safeTransferFrom}."
      },
      "setApprovalForAll(address,bool)": {
        "details": "See {IERC721-setApprovalForAll}."
      },
      "supportsInterface(bytes4)": {
        "details": "See {IERC165-supportsInterface}.     * Time complexity O(1), guaranteed to always use less than 30 000 gas."
      },
      "symbol()": {
        "details": "See {IERC721Metadata-symbol}."
      },
      "tokenByIndex(uint256)": {
        "details": "See {IERC721Enumerable-tokenByIndex}."
      },
      "tokenOfOwnerByIndex(address,uint256)": {
        "details": "See {IERC721Enumerable-tokenOfOwnerByIndex}."
      },
      "tokenURI(uint256)": {
        "details": "See {IERC721Metadata-tokenURI}."
      },
      "totalSupply()": {
        "details": "See {IERC721Enumerable-totalSupply}."
      },
      "transferFrom(address,address,uint256)": {
        "details": "See {IERC721-transferFrom}."
      }
    }
  },
  "userdoc": {
    "methods": {}
  }
}