{
  "contractName": "PixelsToken",
  "abi": [
    {
      "inputs": [],
      "stateMutability": "nonpayable",
      "type": "constructor"
    },
    {
      "anonymous": false,
      "inputs": [
        {
          "indexed": true,
          "internalType": "address",
          "name": "owner",
          "type": "address"
        },
        {
          "indexed": true,
          "internalType": "address",
          "name": "approved",
          "type": "address"
        },
        {
          "indexed": true,
          "internalType": "uint256",
          "name": "tokenId",
          "type": "uint256"
        }
      ],
      "name": "Approval",
      "type": "event"
    },
    {
      "anonymous": false,
      "inputs": [
        {
          "indexed": true,
          "internalType": "address",
          "name": "owner",
          "type": "address"
        },
        {
          "indexed": true,
          "internalType": "address",
          "name": "operator",
          "type": "address"
        },
        {
          "indexed": false,
          "internalType": "bool",
          "name": "approved",
          "type": "bool"
        }
      ],
      "name": "ApprovalForAll",
      "type": "event"
    },
    {
      "anonymous": false,
      "inputs": [
        {
          "indexed": true,
          "internalType": "address",
          "name": "previousOwner",
          "type": "address"
        },
        {
          "indexed": true,
          "internalType": "address",
          "name": "newOwner",
          "type": "address"
        }
      ],
      "name": "OwnershipTransferred",
      "type": "event"
    },
    {
      "anonymous": false,
      "inputs": [
        {
          "indexed": true,
          "internalType": "address",
          "name": "from",
          "type": "address"
        },
        {
          "indexed": true,
          "internalType": "address",
          "name": "to",
          "type": "address"
        },
        {
          "indexed": true,
          "internalType": "uint256",
          "name": "tokenId",
          "type": "uint256"
        }
      ],
      "name": "Transfer",
      "type": "event"
    },
    {
      "inputs": [
        {
          "internalType": "address",
          "name": "to",
          "type": "address"
        },
        {
          "internalType": "uint256",
          "name": "tokenId",
          "type": "uint256"
        }
      ],
      "name": "approve",
      "outputs": [],
      "stateMutability": "nonpayable",
      "type": "function"
    },
    {
      "inputs": [
        {
          "internalType": "address",
          "name": "owner",
          "type": "address"
        }
      ],
      "name": "balanceOf",
      "outputs": [
        {
          "internalType": "uint256",
          "name": "",
          "type": "uint256"
        }
      ],
      "stateMutability": "view",
      "type": "function"
    },
    {
      "inputs": [],
      "name": "baseURI",
      "outputs": [
        {
          "internalType": "string",
          "name": "",
          "type": "string"
        }
      ],
      "stateMutability": "view",
      "type": "function"
    },
    {
      "inputs": [
        {
          "internalType": "uint256",
          "name": "tokenId",
          "type": "uint256"
        }
      ],
      "name": "burn",
      "outputs": [],
      "stateMutability": "nonpayable",
      "type": "function"
    },
    {
      "inputs": [
        {
          "internalType": "uint256",
          "name": "tokenId",
          "type": "uint256"
        }
      ],
      "name": "getApproved",
      "outputs": [
        {
          "internalType": "address",
          "name": "",
          "type": "address"
        }
      ],
      "stateMutability": "view",
      "type": "function"
    },
    {
      "inputs": [
        {
          "internalType": "address",
          "name": "owner",
          "type": "address"
        },
        {
          "internalType": "address",
          "name": "operator",
          "type": "address"
        }
      ],
      "name": "isApprovedForAll",
      "outputs": [
        {
          "internalType": "bool",
          "name": "",
          "type": "bool"
        }
      ],
      "stateMutability": "view",
      "type": "function"
    },
    {
      "inputs": [],
      "name": "name",
      "outputs": [
        {
          "internalType": "string",
          "name": "",
          "type": "string"
        }
      ],
      "stateMutability": "view",
      "type": "function"
    },
    {
      "inputs": [],
      "name": "owner",
      "outputs": [
        {
          "internalType": "address",
          "name": "",
          "type": "address"
        }
      ],
      "stateMutability": "view",
      "type": "function"
    },
    {
      "inputs": [
        {
          "internalType": "uint256",
          "name": "tokenId",
          "type": "uint256"
        }
      ],
      "name": "ownerOf",
      "outputs": [
        {
          "internalType": "address",
          "name": "",
          "type": "address"
        }
      ],
      "stateMutability": "view",
      "type": "function"
    },
    {
      "inputs": [],
      "name": "renounceOwnership",
      "outputs": [],
      "stateMutability": "nonpayable",
      "type": "function"
    },
    {
      "inputs": [
        {
          "internalType": "address",
          "name": "from",
          "type": "address"
        },
        {
          "internalType": "address",
          "name": "to",
          "type": "address"
        },
        {
          "internalType": "uint256",
          "name": "tokenId",
          "type": "uint256"
        }
      ],
      "name": "safeTransferFrom",
      "outputs": [],
      "stateMutability": "nonpayable",
      "type": "function"
    },
    {
      "inputs": [
        {
          "internalType": "address",
          "name": "from",
          "type": "address"
        },
        {
          "internalType": "address",
          "name": "to",
          "type": "address"
        },
        {
          "internalType": "uint256",
          "name": "tokenId",
          "type": "uint256"
        },
        {
          "internalType": "bytes",
          "name": "_data",
          "type": "bytes"
        }
      ],
      "name": "safeTransferFrom",
      "outputs": [],
      "stateMutability": "nonpayable",
      "type": "function"
    },
    {
      "inputs": [
        {
          "internalType": "address",
          "name": "operator",
          "type": "address"
        },
        {
          "internalType": "bool",
          "name": "approved",
          "type": "bool"
        }
      ],
      "name": "setApprovalForAll",
      "outputs": [],
      "stateMutability": "nonpayable",
      "type": "function"
    },
    {
      "inputs": [
        {
          "internalType": "bytes4",
          "name": "interfaceId",
          "type": "bytes4"
        }
      ],
      "name": "supportsInterface",
      "outputs": [
        {
          "internalType": "bool",
          "name": "",
          "type": "bool"
        }
      ],
      "stateMutability": "view",
      "type": "function"
    },
    {
      "inputs": [],
      "name": "symbol",
      "outputs": [
        {
          "internalType": "string",
          "name": "",
          "type": "string"
        }
      ],
      "stateMutability": "view",
      "type": "function"
    },
    {
      "inputs": [
        {
          "internalType": "uint256",
          "name": "index",
          "type": "uint256"
        }
      ],
      "name": "tokenByIndex",
      "outputs": [
        {
          "internalType": "uint256",
          "name": "",
          "type": "uint256"
        }
      ],
      "stateMutability": "view",
      "type": "function"
    },
    {
      "inputs": [
        {
          "internalType": "address",
          "name": "owner",
          "type": "address"
        },
        {
          "internalType": "uint256",
          "name": "index",
          "type": "uint256"
        }
      ],
      "name": "tokenOfOwnerByIndex",
      "outputs": [
        {
          "internalType": "uint256",
          "name": "",
          "type": "uint256"
        }
      ],
      "stateMutability": "view",
      "type": "function"
    },
    {
      "inputs": [
        {
          "internalType": "uint256",
          "name": "tokenId",
          "type": "uint256"
        }
      ],
      "name": "tokenURI",
      "outputs": [
        {
          "internalType": "string",
          "name": "",
          "type": "string"
        }
      ],
      "stateMutability": "view",
      "type": "function"
    },
    {
      "inputs": [],
      "name": "totalSupply",
      "outputs": [
        {
          "internalType": "uint256",
          "name": "",
          "type": "uint256"
        }
      ],
      "stateMutability": "view",
      "type": "function"
    },
    {
      "inputs": [
        {
          "internalType": "address",
          "name": "from",
          "type": "address"
        },
        {
          "internalType": "address",
          "name": "to",
          "type": "address"
        },
        {
          "internalType": "uint256",
          "name": "tokenId",
          "type": "uint256"
        }
      ],
      "name": "transferFrom",
      "outputs": [],
      "stateMutability": "nonpayable",
      "type": "function"
    },
    {
      "inputs": [
        {
          "internalType": "address",
          "name": "newOwner",
          "type": "address"
        }
      ],
      "name": "transferOwnership",
      "outputs": [],
      "stateMutability": "nonpayable",
      "type": "function"
    },
    {
      "inputs": [
        {
          "internalType": "uint256",
          "name": "tokenId",
          "type": "uint256"
        }
      ],
      "name": "getPixels",
      "outputs": [
        {
          "internalType": "bytes3[256]",
          "name": "",
          "type": "bytes3[256]"
        }
      ],
      "stateMutability": "view",
      "type": "function"
    },
    {
      "inputs": [
        {
          "internalType": "bytes3[256]",
          "name": "pixels",
          "type": "bytes3[256]"
        }
      ],
      "name": "mintPixels",
      "outputs": [
        {
          "internalType": "uint256",
          "name": "",
          "type": "uint256"
        }
      ],
      "stateMutability": "payable",
      "type": "function"
    }
  ],
  "bytecode": "0x60806040523480156200001157600080fd5b506040518060400160405280600b81526020017f506978656c73546f6b656e0000000000000000000000000000000000000000008152506040518060400160405280600481526020017f50584c5300000000000000000000000000000000000000000000000000000000815250620000966301ffc9a760e01b620001c960201b60201c565b8160069080519060200190620000ae929190620002da565b508060079080519060200190620000c7929190620002da565b50620000e06380ac58cd60e01b620001c960201b60201c565b620000f8635b5e139f60e01b620001c960201b60201c565b6200011063780e9d6360e01b620001c960201b60201c565b5050600062000124620002d260201b60201c565b905080600a60006101000a81548173ffffffffffffffffffffffffffffffffffffffff021916908373ffffffffffffffffffffffffffffffffffffffff1602179055508073ffffffffffffffffffffffffffffffffffffffff16600073ffffffffffffffffffffffffffffffffffffffff167f8be0079c531659141344cd1fd0a4f28419497f9722a3daafe3b4186f6b6457e060405160405180910390a35062000389565b63ffffffff60e01b817bffffffffffffffffffffffffffffffffffffffffffffffffffffffff1916141562000266576040517f08c379a000000000000000000000000000000000000000000000000000000000815260040180806020018281038252601c8152602001807f4552433136353a20696e76616c696420696e746572666163652069640000000081525060200191505060405180910390fd5b6001600080837bffffffffffffffffffffffffffffffffffffffffffffffffffffffff19167bffffffffffffffffffffffffffffffffffffffffffffffffffffffff1916815260200190815260200160002060006101000a81548160ff02191690831515021790555050565b600033905090565b828054600181600116156101000203166002900490600052602060002090601f016020900481019282601f106200031d57805160ff19168380011785556200034e565b828001600101855582156200034e579182015b828111156200034d57825182559160200191906001019062000330565b5b5090506200035d919062000361565b5090565b6200038691905b808211156200038257600081600090555060010162000368565b5090565b90565b61381380620003996000396000f3fe6080604052600436106101405760003560e01c80636352211e116100b6578063a22cb4651161006f578063a22cb46514610822578063b88d4fde1461087f578063c87b56dd14610991578063e985e9c514610a45578063f2fde38b14610ace578063feb923e114610b1f57610140565b80636352211e146105b45780636c0360eb1461062f57806370a08231146106bf578063715018a6146107245780638da5cb5b1461073b57806395d89b411461079257610140565b806323b872dd1161010857806323b872dd146103485780632f745c59146103c35780633448f9821461043257806342842e0e146104af57806342966c681461052a5780634f6ccce71461056557610140565b806301ffc9a71461014557806306fdde03146101b7578063081812fc14610247578063095ea7b3146102c257806318160ddd1461031d575b600080fd5b34801561015157600080fd5b5061019d6004803603602081101561016857600080fd5b8101908080357bffffffffffffffffffffffffffffffffffffffffffffffffffffffff19169060200190929190505050610b97565b604051808215151515815260200191505060405180910390f35b3480156101c357600080fd5b506101cc610bfe565b6040518080602001828103825283818151815260200191508051906020019080838360005b8381101561020c5780820151818401526020810190506101f1565b50505050905090810190601f1680156102395780820380516001836020036101000a031916815260200191505b509250505060405180910390f35b34801561025357600080fd5b506102806004803603602081101561026a57600080fd5b8101908080359060200190929190505050610ca0565b604051808273ffffffffffffffffffffffffffffffffffffffff1673ffffffffffffffffffffffffffffffffffffffff16815260200191505060405180910390f35b3480156102ce57600080fd5b5061031b600480360360408110156102e557600080fd5b81019080803573ffffffffffffffffffffffffffffffffffffffff16906020019092919080359060200190929190505050610d3b565b005b34801561032957600080fd5b50610332610e7f565b6040518082815260200191505060405180910390f35b34801561035457600080fd5b506103c16004803603606081101561036b57600080fd5b81019080803573ffffffffffffffffffffffffffffffffffffffff169060200190929190803573ffffffffffffffffffffffffffffffffffffffff16906020019092919080359060200190929190505050610e90565b005b3480156103cf57600080fd5b5061041c600480360360408110156103e657600080fd5b81019080803573ffffffffffffffffffffffffffffffffffffffff16906020019092919080359060200190929190505050610f06565b6040518082815260200191505060405180910390f35b610499600480360361200081101561044957600080fd5b8101908080612000019061010080602002604051908101604052809291908261010060200280828437600081840152601f19601f8201169050808301925050505050509192919290505050610f61565b6040518082815260200191505060405180910390f35b3480156104bb57600080fd5b50610528600480360360608110156104d257600080fd5b81019080803573ffffffffffffffffffffffffffffffffffffffff169060200190929190803573ffffffffffffffffffffffffffffffffffffffff169060200190929190803590602001909291905050506110df565b005b34801561053657600080fd5b506105636004803603602081101561054d57600080fd5b81019080803590602001909291905050506110ff565b005b34801561057157600080fd5b5061059e6004803603602081101561058857600080fd5b8101908080359060200190929190505050611171565b6040518082815260200191505060405180910390f35b3480156105c057600080fd5b506105ed600480360360208110156105d757600080fd5b8101908080359060200190929190505050611194565b604051808273ffffffffffffffffffffffffffffffffffffffff1673ffffffffffffffffffffffffffffffffffffffff16815260200191505060405180910390f35b34801561063b57600080fd5b506106446111cb565b6040518080602001828103825283818151815260200191508051906020019080838360005b83811015610684578082015181840152602081019050610669565b50505050905090810190601f1680156106b15780820380516001836020036101000a031916815260200191505b509250505060405180910390f35b3480156106cb57600080fd5b5061070e600480360360208110156106e257600080fd5b81019080803573ffffffffffffffffffffffffffffffffffffffff16906020019092919050505061126d565b6040518082815260200191505060405180910390f35b34801561073057600080fd5b50610739611342565b005b34801561074757600080fd5b506107506114cd565b604051808273ffffffffffffffffffffffffffffffffffffffff1673ffffffffffffffffffffffffffffffffffffffff16815260200191505060405180910390f35b34801561079e57600080fd5b506107a76114f7565b6040518080602001828103825283818151815260200191508051906020019080838360005b838110156107e75780820151818401526020810190506107cc565b50505050905090810190601f1680156108145780820380516001836020036101000a031916815260200191505b509250505060405180910390f35b34801561082e57600080fd5b5061087d6004803603604081101561084557600080fd5b81019080803573ffffffffffffffffffffffffffffffffffffffff169060200190929190803515159060200190929190505050611599565b005b34801561088b57600080fd5b5061098f600480360360808110156108a257600080fd5b81019080803573ffffffffffffffffffffffffffffffffffffffff169060200190929190803573ffffffffffffffffffffffffffffffffffffffff169060200190929190803590602001909291908035906020019064010000000081111561090957600080fd5b82018360208201111561091b57600080fd5b8035906020019184600183028401116401000000008311171561093d57600080fd5b91908080601f016020809104026020016040519081016040528093929190818152602001838380828437600081840152601f19601f820116905080830192505050505050509192919290505050611751565b005b34801561099d57600080fd5b506109ca600480360360208110156109b457600080fd5b81019080803590602001909291905050506117c9565b6040518080602001828103825283818151815260200191508051906020019080838360005b83811015610a0a5780820151818401526020810190506109ef565b50505050905090810190601f168015610a375780820380516001836020036101000a031916815260200191505b509250505060405180910390f35b348015610a5157600080fd5b50610ab460048036036040811015610a6857600080fd5b81019080803573ffffffffffffffffffffffffffffffffffffffff169060200190929190803573ffffffffffffffffffffffffffffffffffffffff169060200190929190505050611ab2565b604051808215151515815260200191505060405180910390f35b348015610ada57600080fd5b50610b1d60048036036020811015610af157600080fd5b81019080803573ffffffffffffffffffffffffffffffffffffffff169060200190929190505050611b46565b005b348015610b2b57600080fd5b50610b5860048036036020811015610b4257600080fd5b8101908080359060200190929190505050611d56565b604051808261010060200280838360005b83811015610b84578082015181840152602081019050610b69565b5050505090500191505060405180910390f35b6000806000837bffffffffffffffffffffffffffffffffffffffffffffffffffffffff19167bffffffffffffffffffffffffffffffffffffffffffffffffffffffff1916815260200190815260200160002060009054906101000a900460ff169050919050565b606060068054600181600116156101000203166002900480601f016020809104026020016040519081016040528092919081815260200182805460018160011615610100020316600290048015610c965780601f10610c6b57610100808354040283529160200191610c96565b820191906000526020600020905b815481529060010190602001808311610c7957829003601f168201915b5050505050905090565b6000610cab82611e5f565b610d00576040517f08c379a000000000000000000000000000000000000000000000000000000000815260040180806020018281038252602c8152602001806136d8602c913960400191505060405180910390fd5b6004600083815260200190815260200160002060009054906101000a900473ffffffffffffffffffffffffffffffffffffffff169050919050565b6000610d4682611194565b90508073ffffffffffffffffffffffffffffffffffffffff168373ffffffffffffffffffffffffffffffffffffffff161415610dcd576040517f08c379a000000000000000000000000000000000000000000000000000000000815260040180806020018281038252602181526020018061375c6021913960400191505060405180910390fd5b8073ffffffffffffffffffffffffffffffffffffffff16610dec611e7c565b73ffffffffffffffffffffffffffffffffffffffff161480610e1b5750610e1a81610e15611e7c565b611ab2565b5b610e70576040517f08c379a000000000000000000000000000000000000000000000000000000000815260040180806020018281038252603881526020018061362b6038913960400191505060405180910390fd5b610e7a8383611e84565b505050565b6000610e8b6002611f3d565b905090565b610ea1610e9b611e7c565b82611f52565b610ef6576040517f08c379a000000000000000000000000000000000000000000000000000000000815260040180806020018281038252603181526020018061377d6031913960400191505060405180910390fd5b610f01838383612046565b505050565b6000610f5982600160008673ffffffffffffffffffffffffffffffffffffffff1673ffffffffffffffffffffffffffffffffffffffff16815260200190815260200160002061228990919063ffffffff16565b905092915050565b60006611c37937e080006fffffffffffffffffffffffffffffffff1634101580610fc45750610f8e6114cd565b73ffffffffffffffffffffffffffffffffffffffff16610fac611e7c565b73ffffffffffffffffffffffffffffffffffffffff16145b611019576040517f08c379a000000000000000000000000000000000000000000000000000000000815260040180806020018281038252602f815260200180613525602f913960400191505060405180910390fd5b6000611025600b6122a3565b9050600c8390806001815401808255809150506001900390600052602060002090601a0201600090919091909150906101006110629291906133a0565b5061107461106e611e7c565b826122b1565b61107e600b6122cf565b60003411156110d65761108f6114cd565b73ffffffffffffffffffffffffffffffffffffffff166108fc349081150290604051600060405180830381858888f193505050501580156110d4573d6000803e3d6000fd5b505b80915050919050565b6110fa83838360405180602001604052806000815250611751565b505050565b61111061110a611e7c565b82611f52565b611165576040517f08c379a00000000000000000000000000000000000000000000000000000000081526004018080602001828103825260308152602001806137ae6030913960400191505060405180910390fd5b61116e816122e5565b50565b60008061118883600261241f90919063ffffffff16565b50905080915050919050565b60006111c48260405180606001604052806029815260200161368d60299139600261244e9092919063ffffffff16565b9050919050565b606060098054600181600116156101000203166002900480601f0160208091040260200160405190810160405280929190818152602001828054600181600116156101000203166002900480156112635780601f1061123857610100808354040283529160200191611263565b820191906000526020600020905b81548152906001019060200180831161124657829003601f168201915b5050505050905090565b60008073ffffffffffffffffffffffffffffffffffffffff168273ffffffffffffffffffffffffffffffffffffffff1614156112f4576040517f08c379a000000000000000000000000000000000000000000000000000000000815260040180806020018281038252602a815260200180613663602a913960400191505060405180910390fd5b61133b600160008473ffffffffffffffffffffffffffffffffffffffff1673ffffffffffffffffffffffffffffffffffffffff16815260200190815260200160002061246d565b9050919050565b61134a611e7c565b73ffffffffffffffffffffffffffffffffffffffff16600a60009054906101000a900473ffffffffffffffffffffffffffffffffffffffff1673ffffffffffffffffffffffffffffffffffffffff161461140c576040517f08c379a00000000000000000000000000000000000000000000000000000000081526004018080602001828103825260208152602001807f4f776e61626c653a2063616c6c6572206973206e6f7420746865206f776e657281525060200191505060405180910390fd5b600073ffffffffffffffffffffffffffffffffffffffff16600a60009054906101000a900473ffffffffffffffffffffffffffffffffffffffff1673ffffffffffffffffffffffffffffffffffffffff167f8be0079c531659141344cd1fd0a4f28419497f9722a3daafe3b4186f6b6457e060405160405180910390a36000600a60006101000a81548173ffffffffffffffffffffffffffffffffffffffff021916908373ffffffffffffffffffffffffffffffffffffffff160217905550565b6000600a60009054906101000a900473ffffffffffffffffffffffffffffffffffffffff16905090565b606060078054600181600116156101000203166002900480601f01602080910402602001604051908101604052809291908181526020018280546001816001161561010002031660029004801561158f5780601f106115645761010080835404028352916020019161158f565b820191906000526020600020905b81548152906001019060200180831161157257829003601f168201915b5050505050905090565b6115a1611e7c565b73ffffffffffffffffffffffffffffffffffffffff168273ffffffffffffffffffffffffffffffffffffffff161415611642576040517f08c379a00000000000000000000000000000000000000000000000000000000081526004018080602001828103825260198152602001807f4552433732313a20617070726f766520746f2063616c6c65720000000000000081525060200191505060405180910390fd5b806005600061164f611e7c565b73ffffffffffffffffffffffffffffffffffffffff1673ffffffffffffffffffffffffffffffffffffffff16815260200190815260200160002060008473ffffffffffffffffffffffffffffffffffffffff1673ffffffffffffffffffffffffffffffffffffffff16815260200190815260200160002060006101000a81548160ff0219169083151502179055508173ffffffffffffffffffffffffffffffffffffffff166116fc611e7c565b73ffffffffffffffffffffffffffffffffffffffff167f17307eab39ab6107e8899845ad3d59bd9653f200f220920489ca2b5937696c3183604051808215151515815260200191505060405180910390a35050565b61176261175c611e7c565b83611f52565b6117b7576040517f08c379a000000000000000000000000000000000000000000000000000000000815260040180806020018281038252603181526020018061377d6031913960400191505060405180910390fd5b6117c384848484612482565b50505050565b60606117d482611e5f565b611829576040517f08c379a000000000000000000000000000000000000000000000000000000000815260040180806020018281038252602f81526020018061372d602f913960400191505060405180910390fd5b6060600860008481526020019081526020016000208054600181600116156101000203166002900480601f0160208091040260200160405190810160405280929190818152602001828054600181600116156101000203166002900480156118d25780601f106118a7576101008083540402835291602001916118d2565b820191906000526020600020905b8154815290600101906020018083116118b557829003601f168201915b505050505090506000600980546001816001161561010002031660029004905014156119015780915050611aad565b6000815111156119da57600981604051602001808380546001816001161561010002031660029004801561196c5780601f1061194a57610100808354040283529182019161196c565b820191906000526020600020905b815481529060010190602001808311611958575b505082805190602001908083835b6020831061199d578051825260208201915060208101905060208303925061197a565b6001836020036101000a03801982511681845116808217855250505050505090500192505050604051602081830303815290604052915050611aad565b60096119e5846124f4565b6040516020018083805460018160011615610100020316600290048015611a435780601f10611a21576101008083540402835291820191611a43565b820191906000526020600020905b815481529060010190602001808311611a2f575b505082805190602001908083835b60208310611a745780518252602082019150602081019050602083039250611a51565b6001836020036101000a038019825116818451168082178552505050505050905001925050506040516020818303038152906040529150505b919050565b6000600560008473ffffffffffffffffffffffffffffffffffffffff1673ffffffffffffffffffffffffffffffffffffffff16815260200190815260200160002060008373ffffffffffffffffffffffffffffffffffffffff1673ffffffffffffffffffffffffffffffffffffffff16815260200190815260200160002060009054906101000a900460ff16905092915050565b611b4e611e7c565b73ffffffffffffffffffffffffffffffffffffffff16600a60009054906101000a900473ffffffffffffffffffffffffffffffffffffffff1673ffffffffffffffffffffffffffffffffffffffff1614611c10576040517f08c379a00000000000000000000000000000000000000000000000000000000081526004018080602001828103825260208152602001807f4f776e61626c653a2063616c6c6572206973206e6f7420746865206f776e657281525060200191505060405180910390fd5b600073ffffffffffffffffffffffffffffffffffffffff168173ffffffffffffffffffffffffffffffffffffffff161415611c96576040517f08c379a00000000000000000000000000000000000000000000000000000000081526004018080602001828103825260268152602001806135866026913960400191505060405180910390fd5b8073ffffffffffffffffffffffffffffffffffffffff16600a60009054906101000a900473ffffffffffffffffffffffffffffffffffffffff1673ffffffffffffffffffffffffffffffffffffffff167f8be0079c531659141344cd1fd0a4f28419497f9722a3daafe3b4186f6b6457e060405160405180910390a380600a60006101000a81548173ffffffffffffffffffffffffffffffffffffffff021916908373ffffffffffffffffffffffffffffffffffffffff16021790555050565b611d5e61343f565b611d6782611e5f565b611dbc576040517f08c379a000000000000000000000000000000000000000000000000000000000815260040180806020018281038252602f8152602001806135ac602f913960400191505060405180910390fd5b600c8281548110611dc957fe5b90600052602060002090601a02016101008060200260405190810160405280929190826101008015611e53576020028201916000905b82829054906101000a900460e81b7cffffffffffffffffffffffffffffffffffffffffffffffffffffffffff191681526020019060030190602082600201049283019260010382029150808411611dff5790505b50505050509050919050565b6000611e7582600261262490919063ffffffff16565b9050919050565b600033905090565b816004600083815260200190815260200160002060006101000a81548173ffffffffffffffffffffffffffffffffffffffff021916908373ffffffffffffffffffffffffffffffffffffffff160217905550808273ffffffffffffffffffffffffffffffffffffffff16611ef783611194565b73ffffffffffffffffffffffffffffffffffffffff167f8c5be1e5ebec7d5bd14f71427d1e84f3dd0314c0f7b2291e5b200ac8c7c3b92560405160405180910390a45050565b6000611f4b8260000161263e565b9050919050565b6000611f5d82611e5f565b611fb2576040517f08c379a000000000000000000000000000000000000000000000000000000000815260040180806020018281038252602c8152602001806135ff602c913960400191505060405180910390fd5b6000611fbd83611194565b90508073ffffffffffffffffffffffffffffffffffffffff168473ffffffffffffffffffffffffffffffffffffffff16148061202c57508373ffffffffffffffffffffffffffffffffffffffff1661201484610ca0565b73ffffffffffffffffffffffffffffffffffffffff16145b8061203d575061203c8185611ab2565b5b91505092915050565b8273ffffffffffffffffffffffffffffffffffffffff1661206682611194565b73ffffffffffffffffffffffffffffffffffffffff16146120d2576040517f08c379a00000000000000000000000000000000000000000000000000000000081526004018080602001828103825260298152602001806137046029913960400191505060405180910390fd5b600073ffffffffffffffffffffffffffffffffffffffff168273ffffffffffffffffffffffffffffffffffffffff161415612158576040517f08c379a00000000000000000000000000000000000000000000000000000000081526004018080602001828103825260248152602001806135db6024913960400191505060405180910390fd5b61216383838361264f565b61216e600082611e84565b6121bf81600160008673ffffffffffffffffffffffffffffffffffffffff1673ffffffffffffffffffffffffffffffffffffffff16815260200190815260200160002061265490919063ffffffff16565b5061221181600160008573ffffffffffffffffffffffffffffffffffffffff1673ffffffffffffffffffffffffffffffffffffffff16815260200190815260200160002061266e90919063ffffffff16565b50612228818360026126889092919063ffffffff16565b50808273ffffffffffffffffffffffffffffffffffffffff168473ffffffffffffffffffffffffffffffffffffffff167fddf252ad1be2c89b69c2b068fc378daa952ba7f163c4a11628f55a4df523b3ef60405160405180910390a4505050565b600061229883600001836126bd565b60001c905092915050565b600081600001549050919050565b6122cb828260405180602001604052806000815250612740565b5050565b6001816000016000828254019250508190555050565b60006122f082611194565b90506122fe8160008461264f565b612309600083611e84565b60006008600084815260200190815260200160002080546001816001161561010002031660029004905014612358576008600083815260200190815260200160002060006123579190613463565b5b6123a982600160008473ffffffffffffffffffffffffffffffffffffffff1673ffffffffffffffffffffffffffffffffffffffff16815260200190815260200160002061265490919063ffffffff16565b506123be8260026127b190919063ffffffff16565b5081600073ffffffffffffffffffffffffffffffffffffffff168273ffffffffffffffffffffffffffffffffffffffff167fddf252ad1be2c89b69c2b068fc378daa952ba7f163c4a11628f55a4df523b3ef60405160405180910390a45050565b60008060008061243286600001866127cb565b915091508160001c8160001c8090509350935050509250929050565b6000612461846000018460001b84612864565b60001c90509392505050565b600061247b8260000161295a565b9050919050565b61248d848484612046565b6124998484848461296b565b6124ee576040517f08c379a00000000000000000000000000000000000000000000000000000000081526004018080602001828103825260328152602001806135546032913960400191505060405180910390fd5b50505050565b6060600082141561253c576040518060400160405280600181526020017f3000000000000000000000000000000000000000000000000000000000000000815250905061261f565b600082905060005b60008214612566578080600101915050600a828161255e57fe5b049150612544565b6060816040519080825280601f01601f19166020018201604052801561259b5781602001600182028038833980820191505090505b50905060006001830390508593505b6000841461261757600a84816125bc57fe5b0660300160f81b828280600190039350815181106125d657fe5b60200101907effffffffffffffffffffffffffffffffffffffffffffffffffffffffffffff1916908160001a905350600a848161260f57fe5b0493506125aa565b819450505050505b919050565b6000612636836000018360001b612bb0565b905092915050565b600081600001805490509050919050565b505050565b6000612666836000018360001b612bd3565b905092915050565b6000612680836000018360001b612cbb565b905092915050565b60006126b4846000018460001b8473ffffffffffffffffffffffffffffffffffffffff1660001b612d2b565b90509392505050565b60008183600001805490501161271e576040517f08c379a00000000000000000000000000000000000000000000000000000000081526004018080602001828103825260228152602001806135036022913960400191505060405180910390fd5b82600001828154811061272d57fe5b9060005260206000200154905092915050565b61274a8383612e07565b612757600084848461296b565b6127ac576040517f08c379a00000000000000000000000000000000000000000000000000000000081526004018080602001828103825260328152602001806135546032913960400191505060405180910390fd5b505050565b60006127c3836000018360001b612ffb565b905092915050565b6000808284600001805490501161282d576040517f08c379a00000000000000000000000000000000000000000000000000000000081526004018080602001828103825260228152602001806136b66022913960400191505060405180910390fd5b600084600001848154811061283e57fe5b906000526020600020906002020190508060000154816001015492509250509250929050565b6000808460010160008581526020019081526020016000205490506000811415839061292b576040517f08c379a00000000000000000000000000000000000000000000000000000000081526004018080602001828103825283818151815260200191508051906020019080838360005b838110156128f05780820151818401526020810190506128d5565b50505050905090810190601f16801561291d5780820380516001836020036101000a031916815260200191505b509250505060405180910390fd5b5084600001600182038154811061293e57fe5b9060005260206000209060020201600101549150509392505050565b600081600001805490509050919050565b600061298c8473ffffffffffffffffffffffffffffffffffffffff16613114565b6129995760019050612ba8565b6060612b2f63150b7a0260e01b6129ae611e7c565b888787604051602401808573ffffffffffffffffffffffffffffffffffffffff1673ffffffffffffffffffffffffffffffffffffffff1681526020018473ffffffffffffffffffffffffffffffffffffffff1673ffffffffffffffffffffffffffffffffffffffff16815260200183815260200180602001828103825283818151815260200191508051906020019080838360005b83811015612a5e578082015181840152602081019050612a43565b50505050905090810190601f168015612a8b5780820380516001836020036101000a031916815260200191505b5095505050505050604051602081830303815290604052907bffffffffffffffffffffffffffffffffffffffffffffffffffffffff19166020820180517bffffffffffffffffffffffffffffffffffffffffffffffffffffffff8381831617835250505050604051806060016040528060328152602001613554603291398773ffffffffffffffffffffffffffffffffffffffff1661315f9092919063ffffffff16565b90506000818060200190516020811015612b4857600080fd5b8101908080519060200190929190505050905063150b7a0260e01b7bffffffffffffffffffffffffffffffffffffffffffffffffffffffff1916817bffffffffffffffffffffffffffffffffffffffffffffffffffffffff191614925050505b949350505050565b600080836001016000848152602001908152602001600020541415905092915050565b60008083600101600084815260200190815260200160002054905060008114612caf5760006001820390506000600186600001805490500390506000866000018281548110612c1e57fe5b9060005260206000200154905080876000018481548110612c3b57fe5b9060005260206000200181905550600183018760010160008381526020019081526020016000208190555086600001805480612c7357fe5b60019003818190600052602060002001600090559055866001016000878152602001908152602001600020600090556001945050505050612cb5565b60009150505b92915050565b6000612cc78383613177565b612d20578260000182908060018154018082558091505060019003906000526020600020016000909190919091505582600001805490508360010160008481526020019081526020016000208190555060019050612d25565b600090505b92915050565b6000808460010160008581526020019081526020016000205490506000811415612dd257846000016040518060400160405280868152602001858152509080600181540180825580915050600190039060005260206000209060020201600090919091909150600082015181600001556020820151816001015550508460000180549050856001016000868152602001908152602001600020819055506001915050612e00565b82856000016001830381548110612de557fe5b90600052602060002090600202016001018190555060009150505b9392505050565b600073ffffffffffffffffffffffffffffffffffffffff168273ffffffffffffffffffffffffffffffffffffffff161415612eaa576040517f08c379a00000000000000000000000000000000000000000000000000000000081526004018080602001828103825260208152602001807f4552433732313a206d696e7420746f20746865207a65726f206164647265737381525060200191505060405180910390fd5b612eb381611e5f565b15612f26576040517f08c379a000000000000000000000000000000000000000000000000000000000815260040180806020018281038252601c8152602001807f4552433732313a20746f6b656e20616c7265616479206d696e7465640000000081525060200191505060405180910390fd5b612f326000838361264f565b612f8381600160008573ffffffffffffffffffffffffffffffffffffffff1673ffffffffffffffffffffffffffffffffffffffff16815260200190815260200160002061266e90919063ffffffff16565b50612f9a818360026126889092919063ffffffff16565b50808273ffffffffffffffffffffffffffffffffffffffff16600073ffffffffffffffffffffffffffffffffffffffff167fddf252ad1be2c89b69c2b068fc378daa952ba7f163c4a11628f55a4df523b3ef60405160405180910390a45050565b60008083600101600084815260200190815260200160002054905060008114613108576000600182039050600060018660000180549050039050600086600001828154811061304657fe5b906000526020600020906002020190508087600001848154811061306657fe5b90600052602060002090600202016000820154816000015560018201548160010155905050600183018760010160008360000154815260200190815260200160002081905550866000018054806130b957fe5b600190038181906000526020600020906002020160008082016000905560018201600090555050905586600101600087815260200190815260200160002060009055600194505050505061310e565b60009150505b92915050565b60008060007fc5d2460186f7233c927e7db2dcc703c0e500b653ca82273b7bfad8045d85a47060001b9050833f915080821415801561315657506000801b8214155b92505050919050565b606061316e848460008561319a565b90509392505050565b600080836001016000848152602001908152602001600020541415905092915050565b60606131a585613114565b613217576040517f08c379a000000000000000000000000000000000000000000000000000000000815260040180806020018281038252601d8152602001807f416464726573733a2063616c6c20746f206e6f6e2d636f6e747261637400000081525060200191505060405180910390fd5b600060608673ffffffffffffffffffffffffffffffffffffffff1685876040518082805190602001908083835b602083106132675780518252602082019150602081019050602083039250613244565b6001836020036101000a03801982511681845116808217855250505050505090500191505060006040518083038185875af1925050503d80600081146132c9576040519150601f19603f3d011682016040523d82523d6000602084013e6132ce565b606091505b509150915081156132e3578092505050613398565b6000815111156132f65780518082602001fd5b836040517f08c379a00000000000000000000000000000000000000000000000000000000081526004018080602001828103825283818151815260200191508051906020019080838360005b8381101561335d578082015181840152602081019050613342565b50505050905090810190601f16801561338a5780820380516001836020036101000a031916815260200191505b509250505060405180910390fd5b949350505050565b82610100600901600a9004810192821561342e5791602002820160005b838211156133fd57835183826101000a81548162ffffff021916908360e81c021790555092602001926003016020816002010492830192600103026133bd565b801561342c5782816101000a81549062ffffff02191690556003016020816002010492830192600103026133fd565b505b50905061343b91906134ab565b5090565b60405180612000016040528061010090602082028038833980820191505090505090565b50805460018160011615610100020316600290046000825580601f1061348957506134a8565b601f0160209004906000526020600020908101906134a791906134dd565b5b50565b6134da91905b808211156134d657600081816101000a81549062ffffff0219169055506001016134b1565b5090565b90565b6134ff91905b808211156134fb5760008160009055506001016134e3565b5090565b9056fe456e756d657261626c655365743a20696e646578206f7574206f6620626f756e6473506978656c73546f6b656e3a206d696e74696e6720717565727920776974686f757420656e6f7567682076616c75654552433732313a207472616e7366657220746f206e6f6e20455243373231526563656976657220696d706c656d656e7465724f776e61626c653a206e6577206f776e657220697320746865207a65726f2061646472657373506978656c73546f6b656e3a20706978656c7320717565727920666f72206e6f6e6578697374656e7420746f6b656e4552433732313a207472616e7366657220746f20746865207a65726f20616464726573734552433732313a206f70657261746f7220717565727920666f72206e6f6e6578697374656e7420746f6b656e4552433732313a20617070726f76652063616c6c6572206973206e6f74206f776e6572206e6f7220617070726f76656420666f7220616c6c4552433732313a2062616c616e636520717565727920666f7220746865207a65726f20616464726573734552433732313a206f776e657220717565727920666f72206e6f6e6578697374656e7420746f6b656e456e756d657261626c654d61703a20696e646578206f7574206f6620626f756e64734552433732313a20617070726f76656420717565727920666f72206e6f6e6578697374656e7420746f6b656e4552433732313a207472616e73666572206f6620746f6b656e2074686174206973206e6f74206f776e4552433732314d657461646174613a2055524920717565727920666f72206e6f6e6578697374656e7420746f6b656e4552433732313a20617070726f76616c20746f2063757272656e74206f776e65724552433732313a207472616e736665722063616c6c6572206973206e6f74206f776e6572206e6f7220617070726f7665644552433732314275726e61626c653a2063616c6c6572206973206e6f74206f776e6572206e6f7220617070726f766564a264697066735822122085ba481a745f162f4a27dd74a0e2b7f00d984754569a920bad14e3c6104c33cb64736f6c63430006020033",
  "source": "// SPDX-License-Identifier: MIT\npragma solidity ^0.6.2;\n\nimport '@openzeppelin/contracts/access/Ownable.sol';\nimport '@openzeppelin/contracts/token/ERC721/ERC721.sol';\nimport '@openzeppelin/contracts/token/ERC721/ERC721Burnable.sol';\nimport '@openzeppelin/contracts/utils/Counters.sol';\n\n// NFT Pixels token\n// Stores rgb pixels\n\ncontract PixelsToken is ERC721, ERC721Burnable, Ownable {\n  using Counters for Counters.Counter;\n  Counters.Counter private _tokenIds;\n\n  uint128 constant COST = 0.005 ether;\n  uint constant SIZE = 16 * 16;\n  bytes3[SIZE][] private _store;\n\n  constructor() public ERC721(\"PixelsToken\", \"PXLS\") {\n\n  }\n\n  // Return the pixels of a token\n  function getPixels(uint256 tokenId)\n    public\n    view\n    returns (bytes3[SIZE] memory)\n  {\n    require(\n      _exists(tokenId),\n      \"PixelsToken: pixels query for nonexistent token\"\n    );\n    return _store[tokenId];\n  }\n\n  // Create a new token\n  function mintPixels(bytes3[SIZE] memory pixels)\n    public\n    payable\n    returns (uint256)\n  {\n    require(\n      msg.value >= COST || _msgSender() == owner(),\n      \"PixelsToken: minting query without enough value\"\n    );\n    uint256 tokenId = _tokenIds.current();\n    _store.push(pixels);\n    _safeMint(_msgSender(), tokenId);\n    _tokenIds.increment();\n    if (msg.value > 0) {\n      payable(owner()).transfer(msg.value);\n    }\n    return tokenId;\n  }\n}\n",
  "sourcePath": "D:/Code/nft-pixels/contracts/PixelsToken.sol",
  "compiler": {
    "name": "solc",
    "version": "0.6.2+commit.bacdbe57.Emscripten.clang"
  },
  "schemaVersion": "3.2.3",
  "updatedAt": "2020-07-28T05:53:13.439Z"
}