{
  "contractName": "TokenOffer",
  "abi": [
    {
      "inputs": [
        {
          "internalType": "address",
          "name": "contractAddress",
          "type": "address"
        }
      ],
      "stateMutability": "nonpayable",
      "type": "constructor"
    },
    {
      "inputs": [
        {
          "internalType": "address",
          "name": "",
          "type": "address"
        },
        {
          "internalType": "address",
          "name": "",
          "type": "address"
        },
        {
          "internalType": "uint256",
          "name": "",
          "type": "uint256"
        },
        {
          "internalType": "bytes",
          "name": "",
          "type": "bytes"
        }
      ],
      "name": "onERC721Received",
      "outputs": [
        {
          "internalType": "bytes4",
          "name": "",
          "type": "bytes4"
        }
      ],
      "stateMutability": "nonpayable",
      "type": "function"
    },
    {
      "inputs": [
        {
          "internalType": "uint256",
          "name": "tokenId",
          "type": "uint256"
        }
      ],
      "name": "get",
      "outputs": [
        {
          "internalType": "address",
          "name": "owner",
          "type": "address"
        },
        {
          "internalType": "uint128",
          "name": "value",
          "type": "uint128"
        }
      ],
      "stateMutability": "view",
      "type": "function",
      "constant": true
    },
    {
      "inputs": [
        {
          "internalType": "uint256",
          "name": "tokenId",
          "type": "uint256"
        },
        {
          "internalType": "uint128",
          "name": "value",
          "type": "uint128"
        }
      ],
      "name": "create",
      "outputs": [],
      "stateMutability": "nonpayable",
      "type": "function"
    },
    {
      "inputs": [
        {
          "internalType": "uint256",
          "name": "tokenId",
          "type": "uint256"
        }
      ],
      "name": "cancel",
      "outputs": [],
      "stateMutability": "nonpayable",
      "type": "function"
    },
    {
      "inputs": [
        {
          "internalType": "uint256",
          "name": "tokenId",
          "type": "uint256"
        }
      ],
      "name": "buy",
      "outputs": [],
      "stateMutability": "payable",
      "type": "function",
      "payable": true
    }
  ],
  "bytecode": "0x608060405234801561001057600080fd5b50604051610fd3380380610fd38339818101604052602081101561003357600080fd5b8101908080519060200190929190505050806000806101000a81548173ffffffffffffffffffffffffffffffffffffffff021916908373ffffffffffffffffffffffffffffffffffffffff16021790555050610f3f806100946000396000f3fe60806040526004361061004a5760003560e01c8063150b7a021461004f57806340e58ee5146101b35780639507d39a146101ee578063c7b6c9c014610294578063d96a094a146102eb575b600080fd5b34801561005b57600080fd5b5061015f6004803603608081101561007257600080fd5b81019080803573ffffffffffffffffffffffffffffffffffffffff169060200190929190803573ffffffffffffffffffffffffffffffffffffffff16906020019092919080359060200190929190803590602001906401000000008111156100d957600080fd5b8201836020820111156100eb57600080fd5b8035906020019184600183028401116401000000008311171561010d57600080fd5b91908080601f016020809104026020016040519081016040528093929190818152602001838380828437600081840152601f19601f820116905080830192505050505050509192919290505050610319565b60405180827bffffffffffffffffffffffffffffffffffffffffffffffffffffffff19167bffffffffffffffffffffffffffffffffffffffffffffffffffffffff1916815260200191505060405180910390f35b3480156101bf57600080fd5b506101ec600480360360208110156101d657600080fd5b810190808035906020019092919050505061032d565b005b3480156101fa57600080fd5b506102276004803603602081101561021157600080fd5b81019080803590602001909291905050506105d5565b604051808373ffffffffffffffffffffffffffffffffffffffff1673ffffffffffffffffffffffffffffffffffffffff168152602001826fffffffffffffffffffffffffffffffff166fffffffffffffffffffffffffffffffff1681526020019250505060405180910390f35b3480156102a057600080fd5b506102e9600480360360408110156102b757600080fd5b810190808035906020019092919080356fffffffffffffffffffffffffffffffff16906020019092919050505061073e565b005b6103176004803603602081101561030157600080fd5b81019080803590602001909291905050506109d6565b005b600063150b7a0260e01b9050949350505050565b610335610dc3565b600160008381526020019081526020016000206040518060400160405290816000820160009054906101000a900473ffffffffffffffffffffffffffffffffffffffff1673ffffffffffffffffffffffffffffffffffffffff1673ffffffffffffffffffffffffffffffffffffffff1681526020016001820160009054906101000a90046fffffffffffffffffffffffffffffffff166fffffffffffffffffffffffffffffffff166fffffffffffffffffffffffffffffffff16815250509050806000015173ffffffffffffffffffffffffffffffffffffffff163373ffffffffffffffffffffffffffffffffffffffff161461047d576040517f08c379a000000000000000000000000000000000000000000000000000000000815260040180806020018281038252602c815260200180610e30602c913960400191505060405180910390fd5b6000809054906101000a900473ffffffffffffffffffffffffffffffffffffffff1673ffffffffffffffffffffffffffffffffffffffff166342842e0e3033856040518463ffffffff1660e01b8152600401808473ffffffffffffffffffffffffffffffffffffffff1673ffffffffffffffffffffffffffffffffffffffff1681526020018373ffffffffffffffffffffffffffffffffffffffff1673ffffffffffffffffffffffffffffffffffffffff1681526020018281526020019350505050600060405180830381600087803b15801561055957600080fd5b505af115801561056d573d6000803e3d6000fd5b5050505060016000838152602001908152602001600020600080820160006101000a81549073ffffffffffffffffffffffffffffffffffffffff02191690556001820160006101000a8154906fffffffffffffffffffffffffffffffff021916905550505050565b6000806105e0610dc3565b600160008581526020019081526020016000206040518060400160405290816000820160009054906101000a900473ffffffffffffffffffffffffffffffffffffffff1673ffffffffffffffffffffffffffffffffffffffff1673ffffffffffffffffffffffffffffffffffffffff1681526020016001820160009054906101000a90046fffffffffffffffffffffffffffffffff166fffffffffffffffffffffffffffffffff166fffffffffffffffffffffffffffffffff16815250509050600073ffffffffffffffffffffffffffffffffffffffff16816000015173ffffffffffffffffffffffffffffffffffffffff16141561072a576040517f08c379a000000000000000000000000000000000000000000000000000000000815260040180806020018281038252602b815260200180610e5c602b913960400191505060405180910390fd5b806000015192508060200151915050915091565b600073ffffffffffffffffffffffffffffffffffffffff166001600084815260200190815260200160002060000160009054906101000a900473ffffffffffffffffffffffffffffffffffffffff1673ffffffffffffffffffffffffffffffffffffffff16146107f9576040517f08c379a0000000000000000000000000000000000000000000000000000000008152600401808060200182810382526033815260200180610ed76033913960400191505060405180910390fd5b6000809054906101000a900473ffffffffffffffffffffffffffffffffffffffff1673ffffffffffffffffffffffffffffffffffffffff166342842e0e3330856040518463ffffffff1660e01b8152600401808473ffffffffffffffffffffffffffffffffffffffff1673ffffffffffffffffffffffffffffffffffffffff1681526020018373ffffffffffffffffffffffffffffffffffffffff1673ffffffffffffffffffffffffffffffffffffffff1681526020018281526020019350505050600060405180830381600087803b1580156108d557600080fd5b505af11580156108e9573d6000803e3d6000fd5b505050506108f5610dc3565b60405180604001604052803373ffffffffffffffffffffffffffffffffffffffff168152602001836fffffffffffffffffffffffffffffffff168152509050806001600085815260200190815260200160002060008201518160000160006101000a81548173ffffffffffffffffffffffffffffffffffffffff021916908373ffffffffffffffffffffffffffffffffffffffff16021790555060208201518160010160006101000a8154816fffffffffffffffffffffffffffffffff02191690836fffffffffffffffffffffffffffffffff160217905550905050505050565b6109de610dc3565b600160008381526020019081526020016000206040518060400160405290816000820160009054906101000a900473ffffffffffffffffffffffffffffffffffffffff1673ffffffffffffffffffffffffffffffffffffffff1673ffffffffffffffffffffffffffffffffffffffff1681526020016001820160009054906101000a90046fffffffffffffffffffffffffffffffff166fffffffffffffffffffffffffffffffff166fffffffffffffffffffffffffffffffff16815250509050600073ffffffffffffffffffffffffffffffffffffffff16816000015173ffffffffffffffffffffffffffffffffffffffff161415610b28576040517f08c379a000000000000000000000000000000000000000000000000000000000815260040180806020018281038252602b815260200180610e87602b913960400191505060405180910390fd5b806000015173ffffffffffffffffffffffffffffffffffffffff163373ffffffffffffffffffffffffffffffffffffffff161415610bb1576040517f08c379a0000000000000000000000000000000000000000000000000000000008152600401808060200182810382526025815260200180610eb26025913960400191505060405180910390fd5b80602001516fffffffffffffffffffffffffffffffff16341015610c20576040517f08c379a000000000000000000000000000000000000000000000000000000000815260040180806020018281038252602a815260200180610e06602a913960400191505060405180910390fd5b806000015173ffffffffffffffffffffffffffffffffffffffff166108fc349081150290604051600060405180830381858888f19350505050158015610c6a573d6000803e3d6000fd5b506000809054906101000a900473ffffffffffffffffffffffffffffffffffffffff1673ffffffffffffffffffffffffffffffffffffffff166342842e0e3033856040518463ffffffff1660e01b8152600401808473ffffffffffffffffffffffffffffffffffffffff1673ffffffffffffffffffffffffffffffffffffffff1681526020018373ffffffffffffffffffffffffffffffffffffffff1673ffffffffffffffffffffffffffffffffffffffff1681526020018281526020019350505050600060405180830381600087803b158015610d4757600080fd5b505af1158015610d5b573d6000803e3d6000fd5b5050505060016000838152602001908152602001600020600080820160006101000a81549073ffffffffffffffffffffffffffffffffffffffff02191690556001820160006101000a8154906fffffffffffffffffffffffffffffffff021916905550505050565b6040518060400160405280600073ffffffffffffffffffffffffffffffffffffffff16815260200160006fffffffffffffffffffffffffffffffff168152509056fe546f6b656e4f666665723a2062757920717565727920776974686f757420656e6f7567682076616c7565546f6b656e4f666665723a2063616e63656c2071756572792063616c6c6572206973206e6f74206f776e6572546f6b656e4f666665723a2067657420717565727920666f72206e6f6e6578697374656e74206f66666572546f6b656e4f666665723a2062757920717565727920666f72206e6f6e6578697374656e74206f66666572546f6b656e4f666665723a206275792071756572792063616c6c6572206973206f776e6572546f6b656e4f666665723a2063726561746520717565727920666f7220616c7265616479206578697374656e74206f66666572a26469706673582212200d6fe15eb084d3f1f7adb1440e8c263e705454fe1d91b28369ac317c4a79356e64736f6c63430006020033",
  "source": "// SPDX-License-Identifier: MIT\npragma solidity ^0.6.2;\n\nimport '@openzeppelin/contracts/token/ERC721/ERC721.sol';\nimport '@openzeppelin/contracts/token/ERC721/ERC721Holder.sol';\n\ncontract TokenOffer is ERC721Holder {\n  ERC721 private _contract;\n\n  struct Offer {\n    address owner;\n    uint128 value;\n  }\n\n  mapping (uint256 => Offer) private _offers;\n\n  constructor(address contractAddress) public {\n    _contract = ERC721(contractAddress);\n  }\n\n  // Get an offer\n  function get(uint256 tokenId)\n    public\n    view\n    returns (address owner, uint128 value)\n  {\n    Offer memory offer = _offers[tokenId];\n    require(\n      offer.owner != address(0),\n      \"TokenOffer: get query for nonexistent offer\"\n    );\n    owner = offer.owner;\n    value = offer.value;\n  }\n\n  // Create an offer\n  function create(uint256 tokenId, uint128 value)\n    public\n  {\n    require(\n      _offers[tokenId].owner == address(0),\n      \"TokenOffer: create query for already existent offer\"\n    );\n    _contract.safeTransferFrom(msg.sender, address(this), tokenId);\n    Offer memory offer = Offer({\n      owner: msg.sender,\n      value: value\n    });\n    _offers[tokenId] = offer;\n  }\n\n  // Cancel an offer\n  function cancel(uint256 tokenId)\n    public\n  {\n    Offer memory offer = _offers[tokenId];\n    require(\n      msg.sender == offer.owner,\n      \"TokenOffer: cancel query caller is not owner\"\n    );\n    _contract.safeTransferFrom(address(this), msg.sender, tokenId);\n    delete _offers[tokenId];\n  }\n\n  // Buy an offer\n  function buy(uint256 tokenId)\n    public\n    payable\n  {\n    Offer memory offer = _offers[tokenId];\n    require(\n      offer.owner != address(0),\n      \"TokenOffer: buy query for nonexistent offer\"\n    );\n    require(\n      msg.sender != offer.owner,\n      \"TokenOffer: buy query caller is owner\"\n    );\n    require(\n      msg.value >= offer.value,\n      \"TokenOffer: buy query without enough value\"\n    );\n    payable(offer.owner).transfer(msg.value);\n    _contract.safeTransferFrom(address(this), msg.sender, tokenId);\n    delete _offers[tokenId];\n  }\n}\n",
  "sourcePath": "D:/Code/nft-pixels/contracts/TokenOffer.sol",
  "compiler": {
    "name": "solc",
    "version": "0.6.2+commit.bacdbe57.Emscripten.clang"
  },
  "schemaVersion": "3.2.3",
  "updatedAt": "2020-07-27T21:10:20.322Z"
}